:0400000007EF00F016
:0A0008007C826CED0AF094EF10F01A
:10100000003738392F3435362A3132332D23303DED
:101010002B256900257500002E50800B376E2E5051
:101020002E24396E2DAE17EF08F019EF08F01AEFE5
:1010300008F039803950D8B420EF08F022EF08F0DA
:1010400037EF08F03928D8A428EF08F02AEF08F085
:1010500032EF08F0000E2B6E000E2C6E000E2D6E7F
:10106000000E2E6E2D8E000E2E6E3FEF08F0000E3D
:101070002B6E000E2C6E000E2D6E000E2E6E32505A
:10108000800B386E37503818D8B449EF08F04BEF62
:1010900008F04CEF08F0378C32503224386E31AE05
:1010A00054EF08F056EF08F057EF08F0388038504A
:1010B000D8B45DEF08F05FEF08F074EF08F038285F
:1010C000D8A465EF08F067EF08F06FEF08F0000EA6
:1010D0002F6E000E306E000E316E000E326E318EAD
:1010E000000E326E7CEF08F0000E2F6E000E306E98
:1010F000000E316E000E326E3950385CD8B083EF7E
:1011000008F085EF08F0ACEF08F037AC8AEF08F094
:101110008CEF08F08EEF08F0800E371A39C03AF0E5
:1011200038C039F03AC038F02BC03AF02FC02BF05D
:101130003AC02FF02CC03AF030C02CF03AC030F05A
:101140002DC03AF031C02DF03AC031F02EC03AF047
:1011500032C02EF03AC032F0000E3A6E395038C02C
:1011600033F0346A335E000E345A34BEC1EF08F0F7
:10117000345009E11A0E335CD8A0C1EF08F0C3EF78
:1011800008F0FAEF08F02B502C102D102E10D8A4D8
:10119000CCEF08F0CFEF08F0010ED0EF08F0000E12
:1011A0003A6E000E2B6E000E2C6E000E2D6E000E91
:1011B0002E6E38C039F003EF09F03AA0E2EF08F0E4
:1011C000E4EF08F0EAEF08F0D8903A3001093A6EFF
:1011D000ECEF08F0D8903A322BA0F1EF08F0F3EFE3
:1011E00008F0F4EF08F03A8E2E342E322D322C32E5
:1011F0002B32392A3850395CD8A001EF09F003EFBF
:1012000009F0DDEF08F037BC08EF09F00AEF09F04C
:101210004AEF09F03950D8A410EF09F012EF09F0A5
:101220001CEF09F0000E2B6E000E2C6E000E2D6EC2
:10123000000E2E6E6BEF0AF02F502B2630502C2212
:1012400031502D2232502E222EA029EF09F02BEF03
:1012500009F0D7EF09F03AA030EF09F032EF09F0CA
:1012600038EF09F0D8903A3001093A6E3AEF09F0B8
:10127000D8903A322BA03FEF09F041EF09F042EF4E
:1012800009F03A8E2E342E322D322C322B32392A5E
:10129000D7EF09F02F502B5C30502C5831502D587F
:1012A0002E50800A336E3250800A3358D8B05BEF2C
:1012B00009F05DEF09F088EF09F02B502F5C336ED9
:1012C0002C503058346E2D503158356E2E503258C7
:1012D000366EFF0E33242B6EFF0E34202C6EFF0E65
:1012E00035202D6EFF0E36202E6E800E371A3A6C8A
:1012F0003A50D8A47EEF09F080EF09F090EF09F0A2
:10130000010E2B26000E2C222D222E2290EF09F00A
:101310002F502B5E30502C5A31502D5A32502E5AAD
:101320002B502C102D102E10D8A499EF09F09BEF04
:1013300009F0D0EF09F03A50D8A4A1EF09F0A3EFDB
:1013400009F0D0EF09F0000E2B6E000E2C6E000E8F
:101350002D6E000E2E6E6BEF0AF0D8902B362C36C9
:101360002D362E363AAEB7EF09F0B9EF09F0BAEFE5
:1013700009F02B803AA0BFEF09F0C1EF09F0C5EFEB
:1013800009F0D8803A36C7EF09F0D8903A3639508C
:10139000D8B4CDEF09F0CFEF09F0D0EF09F039065E
:1013A0002DAED5EF09F0D7EF09F0ADEF09F0000E43
:1013B000386E3AAEDEEF09F0E0EF09F0F8EF09F031
:1013C0003AC033F07F0E3316D8B4E9EF09F0EBEFF3
:1013D00009F0EFEF09F0010E386EF8EF09F02BA0DD
:1013E000F4EF09F0F6EF09F0F8EF09F0EBEF09F090
:1013F0003850D8B4FEEF09F000EF0AF02BEF0AF0F6
:10140000010E2B26000E2C222D222E222EA00BEFB9
:101410000AF00DEF0AF02BEF0AF02BC033F02CC0CE
:1014200034F02DC035F02EC036F036343632353239
:101430003432333233C02BF034C02CF035C02DF0B1
:1014400036C02EF03928D8B428EF0AF02AEF0AF077
:101450002BEF0AF0392A3928D8B431EF0AF033EFEC
:101460000AF03BEF0AF03950D8A439EF0AF03BEF0D
:101470000AF04DEF0AF0000E2B6E000E2C6E000EDF
:101480002D6E000E2E6E3950D8A449EF0AF04BEFA6
:101490000AF04DEF0AF0000E376E39A052EF0AF055
:1014A00054EF0AF057EF0AF02D8E58EF0AF02D9EF8
:1014B000D89039302E6E37AE60EF0AF062EF0AF046
:1014C00063EF0AF02E8E2BC02BF02CC02CF02DC019
:1014D0002DF02EC02EF012000600FACF02F0FBCF46
:1014E00003F0F2A876EF0AF078EF0AF081EF0AF045
:1014F000F2A27DEF0AF07FEF0AF081EF0AF093ECA1
:1015000011F0F0A686EF0AF088EF0AF091EF0AF0EA
:10151000F0A08DEF0AF08FEF0AF091EF0AF091EC56
:1015200011F0F0A896EF0AF098EF0AF0A1EF0AF098
:10153000F0A29DEF0AF09FEF0AF0A1EF0AF08FEC06
:1015400011F0F2A6A6EF0AF0A8EF0AF0C3EF0AF036
:10155000F2A0ADEF0AF0AFEF0AF0C3EF0AF081A8F6
:10156000B4EF0AF0B6EF0AF0C3EF0AF07B04D8A498
:10157000BCEF0AF0BEEF0AF0C3EF0AF0000E7B6E7C
:10158000010E62EC11F0F2A6C8EF0AF0CAEF0AF001
:10159000E5EF0AF0F2A0CFEF0AF0D1EF0AF0E5EFA5
:1015A0000AF081B8D6EF0AF0D8EF0AF0E5EF0AF0BA
:1015B0007B50D8A4DEEF0AF0E0EF0AF0E5EF0AF086
:1015C000010E7B6E000E62EC11F0F2A6EAEF0AF05B
:1015D000ECEF0AF007EF0BF0F2A0F1EF0AF0F3EFF7
:1015E0000AF007EF0BF081AAF8EF0AF0FAEF0AF021
:1015F00007EF0BF07A04D8A400EF0BF002EF0BF02A
:1016000007EF0BF0000E7A6E010E55EC11F0F2A60A
:101610000CEF0BF00EEF0BF029EF0BF0F2A013EF35
:101620000BF015EF0BF029EF0BF081BA1AEF0BF06E
:101630001CEF0BF029EF0BF07A50D8A422EF0BF03F
:1016400024EF0BF029EF0BF0010E7A6E000E55EC33
:1016500011F0F2A62EEF0BF030EF0BF04BEF0BF08A
:10166000F2A035EF0BF037EF0BF04BEF0BF081AC46
:101670003CEF0BF03EEF0BF04BEF0BF07904D8A4EE
:1016800044EF0BF046EF0BF04BEF0BF0000E796ED2
:10169000010E48EC11F0F2A650EF0BF052EF0BF0F8
:1016A0006DEF0BF0F2A057EF0BF059EF0BF06DEF71
:1016B0000BF081BC5EEF0BF060EF0BF06DEF0BF009
:1016C0007950D8A466EF0BF068EF0BF06DEF0BF0DC
:1016D000010E796E000E48EC11F0F2A672EF0BF0DD
:1016E00074EF0BF08FEF0BF0F2A079EF0BF07BEFC4
:1016F0000BF08FEF0BF081AE80EF0BF082EF0BF071
:101700008FEF0BF07804D8A488EF0BF08AEF0BF082
:101710008FEF0BF0000E786E010E3BEC11F0F2A68D
:1017200094EF0BF096EF0BF0B1EF0BF0F2A09BEF04
:101730000BF09DEF0BF0B1EF0BF081BEA2EF0BF0C1
:10174000A4EF0BF0B1EF0BF07850D8A4AAEF0BF098
:10175000ACEF0BF0B1EF0BF0010E786E000E3BEC2E
:1017600011F09DACB6EF0BF0B8EF0BF0C1EF0BF042
:101770009EACBDEF0BF0BFEF0BF0C1EF0BF09FEC99
:1017800011F0F2AAC6EF0BF0C8EF0BF0D1EF0BF09F
:10179000F2A4CDEF0BF0CFEF0BF0D1EF0BF07BEC21
:1017A00011F09DA0D6EF0BF0D8EF0BF0E1EF0BF0AE
:1017B0009EA0DDEF0BF0DFEF0BF0E1EF0BF075EC2F
:1017C00011F09DA2E6EF0BF0E8EF0BF0F1EF0BF05C
:1017D0009EA2EDEF0BF0EFEF0BF0F1EF0BF086ECCC
:1017E00011F0A0A2F6EF0BF0F8EF0BF001EF0CF008
:1017F000A1A2FDEF0BF0FFEF0BF001EF0CF06FEC8F
:1018000011F09DA406EF0CF008EF0CF011EF0CF0B6
:101810009EA40DEF0CF00FEF0CF011EF0CF09DEC0F
:1018200011F0A0A016EF0CF018EF0CF021EF0CF067
:10183000A1A01DEF0CF01FEF0CF021EF0CF09BECC2
:1018400011F09DA826EF0CF028EF0CF031EF0CF012
:101850009EA82DEF0CF02FEF0CF031EF0CF099EC6F
:1018600011F09DAA36EF0CF038EF0CF041EF0CF0C0
:101870009EAA3DEF0CF03FEF0CF041EF0CF0A1EC15
:1018800011F09DA646EF0CF048EF0CF051EF0CF074
:101890009EA64DEF0CF04FEF0CF051EF0CF08DECDD
:1018A00011F09DA656EF0CF058EF0CF061EF0CF024
:1018B0009EA65DEF0CF05FEF0CF061EF0CF024ECF6
:1018C00011F0A0A666EF0CF068EF0CF071EF0CF0D1
:1018D000A1A66DEF0CF06FEF0CF071EF0CF097EC30
:1018E00011F003C0FBFF02C0FAFF7C9211001550FB
:1018F000800B226E15501524296E14AE82EF0CF069
:1019000084EF0CF085EF0CF029802950D8B48BEFD0
:101910000CF08DEF0CF0A2EF0CF02928D8A493EF77
:101920000CF095EF0CF09DEF0CF0000E126E000E17
:10193000136E000E146E000E156E148E000E156ED2
:10194000AAEF0CF0000E126E000E136E000E146E55
:10195000000E156E1950800B221A195019242A6E88
:1019600018AEB5EF0CF0B7EF0CF0B8EF0CF02A8022
:101970002A50D8B4BEEF0CF0C0EF0CF0D5EF0CF04D
:101980002A28D8A4C6EF0CF0C8EF0CF0D0EF0CF06A
:10199000000E166E000E176E000E186E000E196EF9
:1019A000188E000E196EDDEF0CF0000E166E000E94
:1019B000176E000E186E000E196E165017101810C4
:1019C0001910D8A4E6EF0CF0E8EF0CF000EF0DF0E2
:1019D000000E126E000E136E000E146E000E156EC9
:1019E000800E14127F0E15122250151212C012F022
:1019F00013C013F014C014F015C015F043EF0EF02F
:101A00002950D8A406EF0DF008EF0DF012EF0DF0FD
:101A1000000E126E000E136E000E146E000E156E88
:101A200043EF0EF02A5029C01AF01B6A1A5E000E0E
:101A30001B5A7F0E1A24236E000E1B20246E12C028
:101A40001EF013C01FF014C020F015C021F0000ECE
:101A5000126E000E136E000E146E000E156E000E48
:101A6000256E000E266E000E276E000E286E000EEC
:101A70002A6E73EF0DF02A50D8B441EF0DF043EF0A
:101A80000DF05AEF0DF0D8901E361F362036213655
:101A9000D890123613361436153628AE52EF0DF0A4
:101AA00054EF0DF055EF0DF01280D8902536263604
:101AB0002736283616501E5C17501F5818502058CD
:101AC00019502158D8A067EF0DF069EF0DF072EFB3
:101AD0000DF0288C16501E5E17501F5A1850205AB1
:101AE0001950215A2A2A190E2A6479EF0DF07BEF3A
:101AF0000DF03BEF0DF01E501F1020102110D8B438
:101B000084EF0DF086EF0DF09EEF0DF025809EEF37
:101B10000DF0D890123613361436153628AE93EFE2
:101B20000DF095EF0DF096EF0DF01280D890253660
:101B30002636273628362306D8A0240614AEA3EF6F
:101B40000DF0A5EF0DF089EF0DF0000E2A6E28AE16
:101B5000ACEF0DF0AEEF0DF0D2EF0DF0FF0E25144F
:101B60001A6EFF0E26141B6EFF0E27141C6E7F0EBE
:101B700028141D6E1A501B101C101D10D8B4C3EF72
:101B80000DF0C5EF0DF0C9EF0DF0010E2A6ED2EF8A
:101B90000DF012A0CEEF0DF0D0EF0DF0D2EF0DF062
:101BA000C5EF0DF02A50D8B4D8EF0DF0DAEF0DF0F4
:101BB000FEEF0DF0010E1226000E13221422152244
:101BC00015A0E5EF0DF0E7EF0DF0FEEF0DF012C000
:101BD0001AF013C01BF014C01CF015C01DF01D340A
:101BE0001D321C321B321A321AC012F01BC013F005
:101BF0001CC014F01DC015F0234A242A24BE09EF8E
:101C00000EF0245008E12328D8A009EF0EF00BEFC6
:101C10000EF016EF0EF0000E246E2368000E126E0A
:101C2000000E136E000E146E000E156E24BE23EF10
:101C30000EF0245006E12304D8B021EF0EF023EF7C
:101C40000EF031EF0EF0000E246E000E236E000E2B
:101C5000126E000E136E000E146E000E156E000E46
:101C6000226E23C029F029A038EF0EF03AEF0EF0D3
:101C70003DEF0EF0148E3EEF0EF0149ED8902930FA
:101C8000156EF4EF0CF012000C6E0C50D8B44BEF44
:101C90000EF04DEF0EF06FEF0EF007BE54EF0EF0AA
:101CA00052EF0EF06FEF0EF004C008F005C009F01F
:101CB00006C00AF007C00BF0081E091E0A1E0B1E04
:101CC000082A000E09220A220B2208C00EF009C0C1
:101CD0000FF00AC010F00BC011F077EF0EF004C047
:101CE0000EF005C00FF006C010F007C011F0045050
:101CF000051006100710D8A480EF0EF082EF0EF04A
:101D00008CEF0EF0000E046E000E056E000E066ED7
:101D1000000E076E1DEF0FF0960E0D6E96EF0EF093
:101D20000D2AD890113210320F320E32000E0E14DE
:101D3000086E000E0F14096E000E10140A6EFE0ECF
:101D400011140B6E085009100A100B10D8A4ABEF39
:101D50000EF0ADEF0EF090EF0EF0BBEF0EF00D2A8F
:101D6000010E0E26000E0F2210221122D8901132E1
:101D700010320F320E32000E0E14086E000E0F14C9
:101D8000096E000E10140A6EFF0E11140B6E08502F
:101D900009100A100B10D8A4D0EF0EF0D2EF0EF0FD
:101DA000AFEF0EF0DAEF0EF00D06D8900E360F36CC
:101DB0001036113610BEDFEF0EF0E1EF0EF0E9EF56
:101DC0000EF0020E0D60E7EF0EF0E9EF0EF0D4EF2B
:101DD0000EF00DB0EEEF0EF0F0EF0EF0F1EF0EF0B2
:101DE000109ED8900D320DC008F0096A0A6A0B6A7D
:101DF00008C00BF00A6A096A086A08500E120950F6
:101E00000F120A5010120B5011120C50D8B40BEFD5
:101E10000FF00DEF0FF015EF0FF007BE14EF0FF0FE
:101E200012EF0FF015EF0FF0118E0EC004F00FC07F
:101E300005F010C006F011C007F012000001E751D4
:101E4000E811D8A426EF0FF028EF0FF02CEF0FF0D9
:101E5000000E486EC2EF0FF0C69A20EE0CF0E7516C
:101E6000D926E851DA22DFA038EF0FF03AEF0FF071
:101E700042EF0FF0E7C045F0E8C046F047EC10F045
:101E80007AEF0FF020EE0CF0E751D926E851DA2274
:101E9000DFB04DEF0FF04FEF0FF07AEF0FF020EEC5
:101EA0000CF0E751D926E851DA22DFA65AEF0FF0FD
:101EB0005CEF0FF05FEF0FF0C58E6DEF0FF020EECF
:101EC0000CF0E751D926E851DA22DFB66AEF0FF0BD
:101ED0006CEF0FF06DEF0FF0C59EC69EC69CC688D6
:101EE00020EE0BF0E751D926E851DA22DF50C86E18
:101EF0003AEF0FF08AEC11F0000120EE0CF0E75100
:101F0000D926E851DA22DFA288EF0FF08AEF0FF02E
:101F10008DEF0FF0C78E9BEF0FF020EE0CF0E75126
:101F2000D926E851DA22DFB298EF0FF09AEF0FF0DE
:101F30009BEF0FF0C79E20EE0CF0E751D926E85139
:101F4000DA22DFB4A6EF0FF0A8EF0FF0ABEF0FF03F
:101F5000C79CB9EF0FF020EE0CF0E751D926E851FD
:101F6000DA22DFA4B6EF0FF0B8EF0FF0B9EF0FF001
:101F7000C78CE7C004F0E8C005F0C5EC10F0C68AD5
:101F8000010E486E485012003D343E34446E4450B9
:101F9000D8A4CDEF0FF0CFEF0FF0D9EF0FF0000E78
:101FA0003B6E000E3C6E000E3D6E000E3E6E46EF28
:101FB00010F03BC03FF03CC040F03DC041F03EC09F
:101FC00042F0200EE9EF0FF0D89042324132403219
:101FD0003F32E82EE4EF0FF03F50436E3D8EFF0E90
:101FE0003B16FF0E3C16FF0E3D16000E3E16960EDB
:101FF000445E44BE00EF10F0FEEF0FF016EF10F05D
:102000004450800A970FD8B008EF10F00AEF10F094
:102010000CEF10F0CFEF0FF0D8903E323D323C3253
:102020003B32443E0CEF10F02EEF10F01F0E4464D4
:102030001CEF10F01EEF10F026EF10F0CFEF0FF0B6
:10204000D8903B363C363D363E3644064450D8A404
:102050002CEF10F02EEF10F020EF10F04350D8B41A
:1020600034EF10F036EF10F03EEF10F03E1E3D1E44
:102070003C1E3B6C000E3C223D223E223BC03BF00E
:102080003CC03CF03DC03DF03EC03EF0120020EEB2
:102090000AF04550D9264650DA22DF50476EC65026
:1020A0004718F00B4718C66E000E2F6E000E306EEC
:1020B000800E316EBF0E326E45C0D9FF46C0DAFFCA
:1020C000DECF04F0DECF05F0DECF06F0DECF07F086
:1020D000000E44EC0EF004C016F005C017F006C068
:1020E00018F007C019F0000E126E240E136EF40ED5
:1020F000146E490E156E77EC0CF012C02BF013C065
:102100002CF014C02DF015C02EF00CEC08F02BC0F4
:102110003BF02CC03CF02DC03DF02EC03EF0C4EC96
:102120000FF03B50C86E1200120EF66E220EF76EC4
:10213000000EF86E00EE80F010EE36F00900F5CFDC
:10214000EEFFE550E150FAE1020EF66E230EF76E57
:10215000000EF86E00EE73F010EE09F00900F5CFF6
:10216000EEFFE550E150FAE100EEB6F0310EEE6A16
:10217000E806FDE100EE49F02A0EEE6AE806FDE110
:102180007C907C920001EAEF10F09D86A0869E96DE
:10219000A19620EE04F00450D9260550DA22DECFB5
:1021A00061F0DDCF62F020EE06F00450D926055034
:1021B000DA22DECF5FF0DDCF60F020EE08F00450D1
:1021C000D9260550DA22DECFD6F0DDCFD7F0F28E59
:1021D000F28C12000001E491620EE36F060EE26FD2
:1021E000E495E483E4972A0EDE6F230EDF6F000E82
:1021F000E06F000EE16F000EDC6F000EDD6FD80E99
:10220000E76F000EE86F1EEC0FF005EF11F007EF1F
:1022100000F0800F810F820F830F840F890F8A0FC8
:102220008B0F8C0F8D0F920F930F940F950F960FAE
:10223000020A121A626A727A323A030B131B232BB8
:10224000333B020A121A222A9E965F506010D8B4BD
:102250002CEF11F02EEF11F03AEF11F002D83AEF17
:1022600011F00500FA6E5F50FD6E6050FE6EFF6A61
:10227000FA5012001200016EF2900150D8A443EF00
:1022800011F045EF11F047EF11F047EF11F0120098
:10229000016EF2900150D8A450EF11F052EF11F0FE
:1022A00054EF11F054EF11F01200016EF290015052
:1022B000D8A45DEF11F05FEF11F061EF11F061EF65
:1022C00011F01200016EF2900150D8A46AEF11F0E3
:1022D0006CEF11F06EEF11F06EEF11F01200A192A1
:1022E0004A50B36E49C0B2FF12009E904E50CF6E5E
:1022F0004DC0CEFF1200F2945050D76E4FC0D6FFA3
:0B2300001200685A2A1A2A010101018C
:10230C009E924BC0CCFF12009486948812009E962D
:10231C001200F0921200F0901200F29212006B2A4E
:10232C001200A19612009D981200A19012009E948A
:08233C0012009E9C1200120029
:020000040020DA
:08000000FFFFFFFFFFFFFFFF00
:020000040030CA
:0E000000FF02091EFF8181FF0FC00FE00F40BD
:00000001FF
